:100000000C9434000C9451000C9451000C94510049
:100010000C9451000C9451000C9451000C9451001C
:100020000C9451000C9451000C9451000C9451000C
:100030000C9451000C9451000C9451000C945100FC
:100040000C9451000C9451000C9451000C945100EC
:100050000C9451000C9451000C9451000C945100DC
:100060000C9451000C94510011241FBECFEFD8E026
:10007000DEBFCDBF11E0A0E0B1E0E4EFFBE002C0E5
:1000800005900D92AE31B107D9F711E0AEE1B1E0C4
:1000900001C01D92AA32B107E1F70E9406020C943A
:1000A000F8050C94000081E684B980E187B98EEFF1
:1000B0008AB980E388B91092C5008CE08093C400AF
:1000C0001092C00088E18093C10086E08093C20056
:1000D0008FE091E0909327018093260108959093FB
:1000E000C5008093C4001092C00088E18093C100D5
:1000F00086E08093C2008FE091E090932701809387
:10010000260108951F93182F8A3019F48DE00E945C
:1001100082008091C00085FFFCCF1093C60080E074
:1001200090E01F910895982F8091C00085FFFCCF2B
:100130009093C60008950BC020E00000000000006E
:100140000000000000002F5F2A35B9F701970097E3
:1001500099F70895BC018091B9008E7F8093B90012
:100160008091B9008D7F8093B90080ED97E00E9467
:100170007005603130F0862F90E040979595879517
:10018000682F6093B80008958EE190E00E94AA0065
:1001900008953C9A84EA8093BC00089584E9809392
:1001A000BC00089520E030E002C02F5F3F4F8091F7
:1001B000BC0087FD03C026393105B9F708953C9A84
:1001C0008093BB0084E88093BC000895882329F0C5
:1001D0008091BC008F70806C04C08091BC008F70D7
:1001E00080688093BC0008958091BB000895809141
:1001F000B900089584E88093BC008091BC0087FF1B
:10020000FCCF0895AF92BF92CF92DF92EF92FF9210
:100210000F931F933C9A84EA8093BC0020E030E067
:1002200002C02F5F3F4F8091BC0087FD03C026397D
:100230003105B9F73C9A1092BB0084E88093BC006A
:1002400020E030E002C02F5F3F4F8091BC0087FD6F
:1002500003C026393105B9F73C9A87E08093BB008B
:1002600084E88093BC0020E030E002C02F5F3F4F65
:100270008091BC0087FD03C026393105B9F784E9B8
:100280008093BC003C9A84EA8093BC0020E030E07C
:1002900002C02F5F3F4F8091BC0087FD03C026390D
:1002A0003105B9F73C9A81E08093BB0084E88093E4
:1002B000BC0020E030E002C02F5F3F4F8091BC00C7
:1002C00087FD03C026393105B9F78091BC008F70D6
:1002D000806C8093BC0020E030E002C02F5F3F4F75
:1002E0008091BC0087FD03C026393105B9F78091A4
:1002F000BB00A82EBB24CC24DD2420E030E002C0CB
:100300002F5F3F4F8091BC0087FD03C02639310528
:10031000B9F78091BC008F70806C8093BC0020E0A6
:1003200030E002C02F5F3F4F8091BC0087FD03C0CB
:1003300026393105B9F78091BB00E82EFF2400E093
:1003400010E020E030E002C02F5F3F4F8091BC0002
:1003500087FD03C026393105B9F784E88093BC00D6
:100360008091BC0087FFFCCF84E98093BC00B02F54
:10037000AF2D9E2D88278A299B2997FF04C080E0F6
:1003800091E00E949F02902F8F2D7E2D66276A0D8F
:100390007B1D8C1D9D1D22E130E040E050E00E945D
:1003A000510525E030E040E050E00E9484057901ED
:1003B0008A0181E79CE4AFEFBFEFE80EF91E0A1F48
:1003C0001B1FC801B70124E630E040E050E00E9466
:1003D00084053093230120932201C801B70124E64C
:1003E00030E040E050E00E94840560931E0170936D
:1003F0001F0180932001909321011F910F91FF9085
:10040000EF90DF90CF90BF90AF9008950F931F9320
:10041000CF93DF9381E684B980E187B98EEF8AB903
:1004200080E388B91092C5008CE08093C4001092DC
:10043000C00088E18093C10086E08093C2008FE015
:1004400091E090932701809326010E94C40084E6E6
:1004500090E00BC000000000000000000000000061
:100460002F5F2A35B9F7019711F020E0F3CF06E0AE
:1004700011E0CAE0D1E0289880E991E00BC00000CB
:10048000000000000000000000002F5F2A35B9F7CF
:10049000019711F020E0F3CF0E94020100D000D0BC
:1004A000EDB7FEB712830183809122019091230161
:1004B000948383830E948A0200D0EDB7FEB7D28373
:1004C000C18380911E0190911F01A0912001B091E4
:1004D000210183839483A583B6830E948A02289A8C
:1004E00080E991E02DB73EB72A5F3F4F0FB6F894F1
:1004F0003EBF0FBE2DBF0CC000000000000000007A
:10050000000000002F5F2A35B9F7019709F4B3CF37
:1005100020E0F2CFA0E0B0E0E0E9F2E00C94D105F9
:10052000FE0135966191719180912601909127018C
:10053000AF010E94D4022096E2E00C94ED050F93E7
:100540001F93CF93DF938C01E0912601F091270157
:10055000838181FF21C0C0E0D0E00DC0E091260181
:10056000F091270120853185BF01F9010995892B7B
:1005700011F0CFEFDFEFF80181918F01882371F740
:10058000E0912601F0912701208531858AE0BF01A5
:10059000F9010995892B11F0CFEFDFEFCE01DF9143
:1005A000CF911F910F910895ABE0B0E0EAEDF2E03A
:1005B0000C94C1053C012B015A01FC0117821682E3
:1005C000838181FD03C06FEF7FEFC6C19AE0892E62
:1005D0001E010894211C311CF3012381F20123FD2B
:1005E000859123FF81912F01882309F4B2C18532BF
:1005F00039F423FD859123FF81912F01853229F460
:1006000090E0B3010E94C704E7CF982FFF24EE24A7
:100610009924FFE1FF15D0F09B3269F09C3228F459
:10062000903259F0933291F40EC09D3249F09033DC
:1006300069F441E024C052E0F52A84E0F82A28C099
:1006400098E0F92A25C0E0E1FE2A22C0F7FC29C083
:10065000892F80538A3070F4F6FE05C0989C902C48
:100660001124980E15C0E89CE02C1124E80EF0E24D
:10067000FF2A0EC09E3229F4F6FC6BC140E4F42A36
:1006800007C09C3619F450E8F52A02C0983649F4A0
:10069000F20123FD959123FF91912F01992309F0F8
:1006A000B8CF892F8554833018F08052833038F4C6
:1006B00044E050E0A40EB51E5FE359830FC09336AB
:1006C00031F0933779F0933509F056C020C0F50129
:1006D0008081898342E050E0A40EB51E610101E0F3
:1006E00010E012C0F501C080D180F6FC03C06FEFAE
:1006F0007FEF02C0692D70E042E050E0A40EB51E0D
:10070000C6010E94BC048C015FE7F52214C0F5010C
:10071000C080D180F6FC03C06FEF7FEF02C0692D6F
:1007200070E042E050E0A40EB51EC6010E94B10484
:100730008C0150E8F52AF3FE07C01AC080E290E071
:10074000B3010E94C704EA948E2D90E008171907A0
:10075000A8F30EC0F601F7FC8591F7FE81916F01B9
:1007600090E0B3010E94C704E110EA9401501040E8
:100770000115110579F7EAC0943611F0993669F53B
:10078000F7FE08C0F501208131814281538184E068
:1007900090E00AC0F501808191819C01442737FDDA
:1007A0004095542F82E090E0A80EB91E9FE6F922F2
:1007B00057FF09C050954095309521953F4F4F4FB9
:1007C0005F4FE0E8FE2ACA01B901A1012AE030E04A
:1007D0000E94F304D82ED21840C0953729F41F2D5B
:1007E0001F7E2AE030E01DC01F2D197F9F3661F06B
:1007F000903720F4983509F0ACC00FC0903739F02D
:10080000983709F0A6C004C028E030E00AC01061A3
:1008100014FD146020E130E004C014FD166020E1F6
:1008200032E017FF08C0F5016081718182819381F8
:1008300044E050E008C0F50180819181BC0180E076
:1008400090E042E050E0A40EB51EA1010E94F30426
:10085000D82ED2188FE7F82EF122F6FE0BC05EEFED
:10086000F522D91438F4F4FE07C0F2FC05C08FEE6F
:10087000F82202C01D2D01C0192DF4FE0DC0FE018D
:10088000ED0DF11D8081803319F499EEF92208C035
:100890001F5FF2FE05C003C08F2D867809F01F5F31
:1008A0000F2DF3FC14C0F0FE0FC01E1510F09D2C90
:1008B0000BC09D2C9E0C911A1E2D06C080E290E06C
:1008C000B3010E94C7041F5F1E15C0F304C01E15AC
:1008D00010F4E11A01C0EE2404FF0FC080E390E0A1
:1008E000B3010E94C70402FF1DC001FD03C088E7D9
:1008F00090E00EC088E590E00BC0802F867891F0E4
:1009000001FF02C08BE201C080E2F7FC8DE290E0C3
:10091000B3010E94C70406C080E390E0B3010E94C7
:10092000C7049A94D914C0F3DA94F101ED0DF11DC6
:10093000808190E0B3010E94C704DD20A9F706C0C2
:1009400080E290E0B3010E94C704EA94EE20C1F770
:1009500043CEF30166817781CB012B96E2E10C94C3
:10096000DD05FC010590615070400110D8F78095BD
:1009700090958E0F9F1F0895FC016150704001906B
:100980000110D8F7809590958E0F9F1F08950F93B3
:100990001F93CF93DF938C01EB018B8181FF1BC0F1
:1009A00082FF0DC02E813F818C819D8128173907E0
:1009B00064F4E881F9810193F983E88306C0E8854E
:1009C000F985802F0995892B31F48E819F810196BD
:1009D0009F838E8302C00FEF1FEFC801DF91CF917D
:1009E0001F910F910895FA01AA27283051F1203163
:1009F00081F1E8946F936E7F6E5F7F4F8F4F9F4FB3
:100A0000AF4FB1E03ED0B4E03CD0670F781F891FF4
:100A10009A1FA11D680F791F8A1F911DA11D6A0FC2
:100A2000711D811D911DA11D20D009F468943F9175
:100A30002AE0269F11243019305D3193DEF6CF0174
:100A40000895462F4770405D4193B3E00FD0C9F73A
:100A5000F6CF462F4F70405D4A3318F0495D31FDA7
:100A60004052419302D0A9F7EACFB4E0A6959795FA
:100A7000879577956795BA95C9F7009761057105D0
:100A800008959B01AC010A2E06945795479537951A
:100A90002795BA95C9F7620F731F841F951FA01D74
:100AA0000895629FD001739FF001829FE00DF11DB8
:100AB000649FE00DF11D929FF00D839FF00D749FD8
:100AC000F00D659FF00D9927729FB00DE11DF91F84
:100AD000639FB00DE11DF91FBD01CF0111240895E1
:100AE000AA1BBB1B51E107C0AA1FBB1FA617B70754
:100AF00010F0A61BB70B881F991F5A95A9F7809570
:100B00009095BC01CD01089597FB092E05260ED0C6
:100B100057FD04D014D00AD0001C38F450954095ED
:100B2000309521953F4F4F4F5F4F0895F6F79095C1
:100B30008095709561957F4F8F4F9F4F0895A1E2EB
:100B40001A2EAA1BBB1BFD010DC0AA1FBB1FEE1F47
:100B5000FF1FA217B307E407F50720F0A21BB30B92
:100B6000E40BF50B661F771F881F991F1A9469F70E
:100B700060957095809590959B01AC01BD01CF016A
:100B800008952F923F924F925F926F927F928F9231
:100B90009F92AF92BF92CF92DF92EF92FF920F930C
:100BA0001F93CF93DF93CDB7DEB7CA1BDB0B0FB616
:100BB000F894DEBF0FBECDBF09942A8839884888D3
:100BC0005F846E847D848C849B84AA84B984C88469
:100BD000DF80EE80FD800C811B81AA81B981CE0F60
:100BE000D11D0FB6F894DEBF0FBECDBFED01089545
:040BF000F894FFCFA7
:100BF4006572726F720025642E00256C750A000000
:0E0C040000000200000000820000000000005E
:00000001FF
